{
  "contractName": "CarbonMarketplace",
  "abi": [
    {
      "inputs": [
        {
          "internalType": "address",
          "name": "_nftContract",
          "type": "address"
        }
      ],
      "stateMutability": "nonpayable",
      "type": "constructor"
    },
    {
      "anonymous": false,
      "inputs": [
        {
          "indexed": true,
          "internalType": "uint256",
          "name": "tokenId",
          "type": "uint256"
        },
        {
          "indexed": false,
          "internalType": "uint256",
          "name": "price",
          "type": "uint256"
        },
        {
          "indexed": false,
          "internalType": "address",
          "name": "seller",
          "type": "address"
        }
      ],
      "name": "Listed",
      "type": "event"
    },
    {
      "anonymous": false,
      "inputs": [
        {
          "indexed": true,
          "internalType": "uint256",
          "name": "tokenId",
          "type": "uint256"
        },
        {
          "indexed": false,
          "internalType": "address",
          "name": "buyer",
          "type": "address"
        },
        {
          "indexed": false,
          "internalType": "uint256",
          "name": "price",
          "type": "uint256"
        }
      ],
      "name": "Purchased",
      "type": "event"
    },
    {
      "inputs": [
        {
          "internalType": "uint256",
          "name": "",
          "type": "uint256"
        }
      ],
      "name": "listings",
      "outputs": [
        {
          "internalType": "uint256",
          "name": "price",
          "type": "uint256"
        },
        {
          "internalType": "address",
          "name": "seller",
          "type": "address"
        },
        {
          "internalType": "bool",
          "name": "active",
          "type": "bool"
        }
      ],
      "stateMutability": "view",
      "type": "function",
      "constant": true
    },
    {
      "inputs": [],
      "name": "nftContract",
      "outputs": [
        {
          "internalType": "contract CarbonCreditNFT",
          "name": "",
          "type": "address"
        }
      ],
      "stateMutability": "view",
      "type": "function",
      "constant": true
    },
    {
      "inputs": [
        {
          "internalType": "uint256",
          "name": "tokenId",
          "type": "uint256"
        },
        {
          "internalType": "uint256",
          "name": "price",
          "type": "uint256"
        }
      ],
      "name": "listNFT",
      "outputs": [],
      "stateMutability": "nonpayable",
      "type": "function"
    },
    {
      "inputs": [
        {
          "internalType": "uint256",
          "name": "tokenId",
          "type": "uint256"
        }
      ],
      "name": "buyNFT",
      "outputs": [],
      "stateMutability": "payable",
      "type": "function",
      "payable": true
    }
  ],
  "bytecode": "0x608060405234801561001057600080fd5b50604051610bd9380380610bd9833981810160405281019061003291906100db565b806000806101000a81548173ffffffffffffffffffffffffffffffffffffffff021916908373ffffffffffffffffffffffffffffffffffffffff16021790555050610108565b600080fd5b600073ffffffffffffffffffffffffffffffffffffffff82169050919050565b60006100a88261007d565b9050919050565b6100b88161009d565b81146100c357600080fd5b50565b6000815190506100d5816100af565b92915050565b6000602082840312156100f1576100f0610078565b5b60006100ff848285016100c6565b91505092915050565b610ac2806101176000396000f3fe60806040526004361061003f5760003560e01c806351ed82881461004457806394383f1414610060578063d56d229d14610089578063de74e57b146100b4575b600080fd5b61005e600480360381019061005991906106b1565b6100f3565b005b34801561006c57600080fd5b50610087600480360381019061008291906106de565b61036e565b005b34801561009557600080fd5b5061009e6105fb565b6040516100ab919061079d565b60405180910390f35b3480156100c057600080fd5b506100db60048036038101906100d691906106b1565b61061f565b6040516100ea93929190610803565b60405180910390f35b600060016000838152602001908152602001600020604051806060016040529081600082015481526020016001820160009054906101000a900473ffffffffffffffffffffffffffffffffffffffff1673ffffffffffffffffffffffffffffffffffffffff1673ffffffffffffffffffffffffffffffffffffffff1681526020016001820160149054906101000a900460ff161515151581525050905080604001516101d4576040517f08c379a00000000000000000000000000000000000000000000000000000000081526004016101cb90610897565b60405180910390fd5b806000015134101561021b576040517f08c379a000000000000000000000000000000000000000000000000000000000815260040161021290610903565b60405180910390fd5b806020015173ffffffffffffffffffffffffffffffffffffffff166108fc82600001519081150290604051600060405180830381858888f19350505050158015610269573d6000803e3d6000fd5b5060008054906101000a900473ffffffffffffffffffffffffffffffffffffffff1673ffffffffffffffffffffffffffffffffffffffff166342842e0e826020015133856040518463ffffffff1660e01b81526004016102cb93929190610923565b600060405180830381600087803b1580156102e557600080fd5b505af11580156102f9573d6000803e3d6000fd5b5050505060006001600084815260200190815260200160002060010160146101000a81548160ff021916908315150217905550817ffd51b2c9f55c42d2b72ac683526519563be02fc0107f034ff430c05185ff1b6633836000015160405161036292919061095a565b60405180910390a25050565b3373ffffffffffffffffffffffffffffffffffffffff1660008054906101000a900473ffffffffffffffffffffffffffffffffffffffff1673ffffffffffffffffffffffffffffffffffffffff16636352211e846040518263ffffffff1660e01b81526004016103de9190610983565b602060405180830381865afa1580156103fb573d6000803e3d6000fd5b505050506040513d601f19601f8201168201806040525081019061041f91906109ca565b73ffffffffffffffffffffffffffffffffffffffff1614610475576040517f08c379a000000000000000000000000000000000000000000000000000000000815260040161046c90610a43565b60405180910390fd5b60008054906101000a900473ffffffffffffffffffffffffffffffffffffffff1673ffffffffffffffffffffffffffffffffffffffff1663095ea7b330846040518363ffffffff1660e01b81526004016104d092919061095a565b600060405180830381600087803b1580156104ea57600080fd5b505af11580156104fe573d6000803e3d6000fd5b5050505060405180606001604052808281526020013373ffffffffffffffffffffffffffffffffffffffff16815260200160011515815250600160008481526020019081526020016000206000820151816000015560208201518160010160006101000a81548173ffffffffffffffffffffffffffffffffffffffff021916908373ffffffffffffffffffffffffffffffffffffffff16021790555060408201518160010160146101000a81548160ff021916908315150217905550905050817fb4e5606a376800f822ae7ce93010dddb4ebd38ca6db1bdbc2d0a1de90c9079e482336040516105ef929190610a63565b60405180910390a25050565b60008054906101000a900473ffffffffffffffffffffffffffffffffffffffff1681565b60016020528060005260406000206000915090508060000154908060010160009054906101000a900473ffffffffffffffffffffffffffffffffffffffff16908060010160149054906101000a900460ff16905083565b600080fd5b6000819050919050565b61068e8161067b565b811461069957600080fd5b50565b6000813590506106ab81610685565b92915050565b6000602082840312156106c7576106c6610676565b5b60006106d58482850161069c565b91505092915050565b600080604083850312156106f5576106f4610676565b5b60006107038582860161069c565b92505060206107148582860161069c565b9150509250929050565b600073ffffffffffffffffffffffffffffffffffffffff82169050919050565b6000819050919050565b600061076361075e6107598461071e565b61073e565b61071e565b9050919050565b600061077582610748565b9050919050565b60006107878261076a565b9050919050565b6107978161077c565b82525050565b60006020820190506107b2600083018461078e565b92915050565b6107c18161067b565b82525050565b60006107d28261071e565b9050919050565b6107e2816107c7565b82525050565b60008115159050919050565b6107fd816107e8565b82525050565b600060608201905061081860008301866107b8565b61082560208301856107d9565b61083260408301846107f4565b949350505050565b600082825260208201905092915050565b7f4e6f7420666f722073616c650000000000000000000000000000000000000000600082015250565b6000610881600c8361083a565b915061088c8261084b565b602082019050919050565b600060208201905081810360008301526108b081610874565b9050919050565b7f496e73756666696369656e742066756e64730000000000000000000000000000600082015250565b60006108ed60128361083a565b91506108f8826108b7565b602082019050919050565b6000602082019050818103600083015261091c816108e0565b9050919050565b600060608201905061093860008301866107d9565b61094560208301856107d9565b61095260408301846107b8565b949350505050565b600060408201905061096f60008301856107d9565b61097c60208301846107b8565b9392505050565b600060208201905061099860008301846107b8565b92915050565b6109a7816107c7565b81146109b257600080fd5b50565b6000815190506109c48161099e565b92915050565b6000602082840312156109e0576109df610676565b5b60006109ee848285016109b5565b91505092915050565b7f4e6f74206f776e65720000000000000000000000000000000000000000000000600082015250565b6000610a2d60098361083a565b9150610a38826109f7565b602082019050919050565b60006020820190508181036000830152610a5c81610a20565b9050919050565b6000604082019050610a7860008301856107b8565b610a8560208301846107d9565b939250505056fea264697066735822122072a27ca8566ae89a41f9dc9c015aa67c03d186600a3c94e7c2a1aaf1a23ffecb64736f6c634300081e0033",
  "immutableReferences": {},
  "source": "// SPDX-License-Identifier: MIT\r\npragma solidity ^0.8.20;\r\n\r\nimport \"./CarbonCreditNFT.sol\";\r\n\r\ncontract CarbonMarketplace {\r\n    struct Listing {\r\n        uint256 price;\r\n        address seller;\r\n        bool active;\r\n    }\r\n\r\n    CarbonCreditNFT public nftContract;\r\n    mapping(uint256 => Listing) public listings;\r\n\r\n    event Listed(uint256 indexed tokenId, uint256 price, address seller);\r\n    event Purchased(uint256 indexed tokenId, address buyer, uint256 price);\r\n\r\n    constructor(address _nftContract) {\r\n        nftContract = CarbonCreditNFT(_nftContract);\r\n    }\r\n\r\n    function listNFT(uint256 tokenId, uint256 price) external {\r\n        require(nftContract.ownerOf(tokenId) == msg.sender, \"Not owner\");\r\n        nftContract.approve(address(this), tokenId);\r\n        listings[tokenId] = Listing(price, msg.sender, true);\r\n        emit Listed(tokenId, price, msg.sender);\r\n    }\r\n\r\n    function buyNFT(uint256 tokenId) external payable {\r\n        Listing memory item = listings[tokenId];\r\n        require(item.active, \"Not for sale\");\r\n        require(msg.value >= item.price, \"Insufficient funds\");\r\n\r\n        // Pay farmer directly\r\n        payable(item.seller).transfer(item.price);\r\n\r\n        nftContract.safeTransferFrom(item.seller, msg.sender, tokenId);\r\n        listings[tokenId].active = false;\r\n\r\n        emit Purchased(tokenId, msg.sender, item.price);\r\n    }\r\n}\r\n",
  "sourcePath": "C:\\Users\\hp\\OneDrive\\Desktop\\Projects\\BlueCarbon\\blockchain\\contracts\\CarbonMarketplace.sol",
  "compiler": {
    "name": "solc",
    "version": "0.8.30+commit.73712a01.Emscripten.clang"
  },
  "schemaVersion": "3.4.16",
  "updatedAt": "2025-10-17T16:22:59.613Z",
  "networkType": "ethereum",
  "devdoc": {
    "kind": "dev",
    "methods": {},
    "version": 1
  },
  "userdoc": {
    "kind": "user",
    "methods": {},
    "version": 1
  }
}