{
  "contractName": "CarbonCreditNFT",
  "abi": [
    {
      "inputs": [
        {
          "internalType": "address",
          "name": "_farmerRegistry",
          "type": "address"
        }
      ],
      "stateMutability": "nonpayable",
      "type": "constructor"
    },
    {
      "inputs": [
        {
          "internalType": "address",
          "name": "sender",
          "type": "address"
        },
        {
          "internalType": "uint256",
          "name": "tokenId",
          "type": "uint256"
        },
        {
          "internalType": "address",
          "name": "owner",
          "type": "address"
        }
      ],
      "name": "ERC721IncorrectOwner",
      "type": "error"
    },
    {
      "inputs": [
        {
          "internalType": "address",
          "name": "operator",
          "type": "address"
        },
        {
          "internalType": "uint256",
          "name": "tokenId",
          "type": "uint256"
        }
      ],
      "name": "ERC721InsufficientApproval",
      "type": "error"
    },
    {
      "inputs": [
        {
          "internalType": "address",
          "name": "approver",
          "type": "address"
        }
      ],
      "name": "ERC721InvalidApprover",
      "type": "error"
    },
    {
      "inputs": [
        {
          "internalType": "address",
          "name": "operator",
          "type": "address"
        }
      ],
      "name": "ERC721InvalidOperator",
      "type": "error"
    },
    {
      "inputs": [
        {
          "internalType": "address",
          "name": "owner",
          "type": "address"
        }
      ],
      "name": "ERC721InvalidOwner",
      "type": "error"
    },
    {
      "inputs": [
        {
          "internalType": "address",
          "name": "receiver",
          "type": "address"
        }
      ],
      "name": "ERC721InvalidReceiver",
      "type": "error"
    },
    {
      "inputs": [
        {
          "internalType": "address",
          "name": "sender",
          "type": "address"
        }
      ],
      "name": "ERC721InvalidSender",
      "type": "error"
    },
    {
      "inputs": [
        {
          "internalType": "uint256",
          "name": "tokenId",
          "type": "uint256"
        }
      ],
      "name": "ERC721NonexistentToken",
      "type": "error"
    },
    {
      "inputs": [
        {
          "internalType": "address",
          "name": "owner",
          "type": "address"
        }
      ],
      "name": "OwnableInvalidOwner",
      "type": "error"
    },
    {
      "inputs": [
        {
          "internalType": "address",
          "name": "account",
          "type": "address"
        }
      ],
      "name": "OwnableUnauthorizedAccount",
      "type": "error"
    },
    {
      "anonymous": false,
      "inputs": [
        {
          "indexed": true,
          "internalType": "address",
          "name": "owner",
          "type": "address"
        },
        {
          "indexed": true,
          "internalType": "address",
          "name": "approved",
          "type": "address"
        },
        {
          "indexed": true,
          "internalType": "uint256",
          "name": "tokenId",
          "type": "uint256"
        }
      ],
      "name": "Approval",
      "type": "event"
    },
    {
      "anonymous": false,
      "inputs": [
        {
          "indexed": true,
          "internalType": "address",
          "name": "owner",
          "type": "address"
        },
        {
          "indexed": true,
          "internalType": "address",
          "name": "operator",
          "type": "address"
        },
        {
          "indexed": false,
          "internalType": "bool",
          "name": "approved",
          "type": "bool"
        }
      ],
      "name": "ApprovalForAll",
      "type": "event"
    },
    {
      "anonymous": false,
      "inputs": [
        {
          "indexed": false,
          "internalType": "uint256",
          "name": "_fromTokenId",
          "type": "uint256"
        },
        {
          "indexed": false,
          "internalType": "uint256",
          "name": "_toTokenId",
          "type": "uint256"
        }
      ],
      "name": "BatchMetadataUpdate",
      "type": "event"
    },
    {
      "anonymous": false,
      "inputs": [
        {
          "indexed": false,
          "internalType": "uint256",
          "name": "_tokenId",
          "type": "uint256"
        }
      ],
      "name": "MetadataUpdate",
      "type": "event"
    },
    {
      "anonymous": false,
      "inputs": [
        {
          "indexed": true,
          "internalType": "address",
          "name": "farmer",
          "type": "address"
        },
        {
          "indexed": true,
          "internalType": "uint256",
          "name": "tokenId",
          "type": "uint256"
        },
        {
          "indexed": false,
          "internalType": "string",
          "name": "tokenURI",
          "type": "string"
        }
      ],
      "name": "NFTMinted",
      "type": "event"
    },
    {
      "anonymous": false,
      "inputs": [
        {
          "indexed": true,
          "internalType": "uint256",
          "name": "tokenId",
          "type": "uint256"
        },
        {
          "indexed": false,
          "internalType": "uint256",
          "name": "newExpiry",
          "type": "uint256"
        }
      ],
      "name": "NFTRenewed",
      "type": "event"
    },
    {
      "anonymous": false,
      "inputs": [
        {
          "indexed": true,
          "internalType": "address",
          "name": "previousOwner",
          "type": "address"
        },
        {
          "indexed": true,
          "internalType": "address",
          "name": "newOwner",
          "type": "address"
        }
      ],
      "name": "OwnershipTransferred",
      "type": "event"
    },
    {
      "anonymous": false,
      "inputs": [
        {
          "indexed": true,
          "internalType": "address",
          "name": "from",
          "type": "address"
        },
        {
          "indexed": true,
          "internalType": "address",
          "name": "to",
          "type": "address"
        },
        {
          "indexed": true,
          "internalType": "uint256",
          "name": "tokenId",
          "type": "uint256"
        }
      ],
      "name": "Transfer",
      "type": "event"
    },
    {
      "inputs": [
        {
          "internalType": "address",
          "name": "to",
          "type": "address"
        },
        {
          "internalType": "uint256",
          "name": "tokenId",
          "type": "uint256"
        }
      ],
      "name": "approve",
      "outputs": [],
      "stateMutability": "nonpayable",
      "type": "function"
    },
    {
      "inputs": [
        {
          "internalType": "address",
          "name": "owner",
          "type": "address"
        }
      ],
      "name": "balanceOf",
      "outputs": [
        {
          "internalType": "uint256",
          "name": "",
          "type": "uint256"
        }
      ],
      "stateMutability": "view",
      "type": "function",
      "constant": true
    },
    {
      "inputs": [],
      "name": "farmerRegistry",
      "outputs": [
        {
          "internalType": "address",
          "name": "",
          "type": "address"
        }
      ],
      "stateMutability": "view",
      "type": "function",
      "constant": true
    },
    {
      "inputs": [
        {
          "internalType": "uint256",
          "name": "tokenId",
          "type": "uint256"
        }
      ],
      "name": "getApproved",
      "outputs": [
        {
          "internalType": "address",
          "name": "",
          "type": "address"
        }
      ],
      "stateMutability": "view",
      "type": "function",
      "constant": true
    },
    {
      "inputs": [
        {
          "internalType": "address",
          "name": "owner",
          "type": "address"
        },
        {
          "internalType": "address",
          "name": "operator",
          "type": "address"
        }
      ],
      "name": "isApprovedForAll",
      "outputs": [
        {
          "internalType": "bool",
          "name": "",
          "type": "bool"
        }
      ],
      "stateMutability": "view",
      "type": "function",
      "constant": true
    },
    {
      "inputs": [],
      "name": "name",
      "outputs": [
        {
          "internalType": "string",
          "name": "",
          "type": "string"
        }
      ],
      "stateMutability": "view",
      "type": "function",
      "constant": true
    },
    {
      "inputs": [],
      "name": "owner",
      "outputs": [
        {
          "internalType": "address",
          "name": "",
          "type": "address"
        }
      ],
      "stateMutability": "view",
      "type": "function",
      "constant": true
    },
    {
      "inputs": [
        {
          "internalType": "uint256",
          "name": "tokenId",
          "type": "uint256"
        }
      ],
      "name": "ownerOf",
      "outputs": [
        {
          "internalType": "address",
          "name": "",
          "type": "address"
        }
      ],
      "stateMutability": "view",
      "type": "function",
      "constant": true
    },
    {
      "inputs": [
        {
          "internalType": "uint256",
          "name": "",
          "type": "uint256"
        }
      ],
      "name": "renewalTimestamp",
      "outputs": [
        {
          "internalType": "uint256",
          "name": "",
          "type": "uint256"
        }
      ],
      "stateMutability": "view",
      "type": "function",
      "constant": true
    },
    {
      "inputs": [],
      "name": "renounceOwnership",
      "outputs": [],
      "stateMutability": "nonpayable",
      "type": "function"
    },
    {
      "inputs": [
        {
          "internalType": "address",
          "name": "from",
          "type": "address"
        },
        {
          "internalType": "address",
          "name": "to",
          "type": "address"
        },
        {
          "internalType": "uint256",
          "name": "tokenId",
          "type": "uint256"
        }
      ],
      "name": "safeTransferFrom",
      "outputs": [],
      "stateMutability": "nonpayable",
      "type": "function"
    },
    {
      "inputs": [
        {
          "internalType": "address",
          "name": "from",
          "type": "address"
        },
        {
          "internalType": "address",
          "name": "to",
          "type": "address"
        },
        {
          "internalType": "uint256",
          "name": "tokenId",
          "type": "uint256"
        },
        {
          "internalType": "bytes",
          "name": "data",
          "type": "bytes"
        }
      ],
      "name": "safeTransferFrom",
      "outputs": [],
      "stateMutability": "nonpayable",
      "type": "function"
    },
    {
      "inputs": [
        {
          "internalType": "address",
          "name": "operator",
          "type": "address"
        },
        {
          "internalType": "bool",
          "name": "approved",
          "type": "bool"
        }
      ],
      "name": "setApprovalForAll",
      "outputs": [],
      "stateMutability": "nonpayable",
      "type": "function"
    },
    {
      "inputs": [
        {
          "internalType": "bytes4",
          "name": "interfaceId",
          "type": "bytes4"
        }
      ],
      "name": "supportsInterface",
      "outputs": [
        {
          "internalType": "bool",
          "name": "",
          "type": "bool"
        }
      ],
      "stateMutability": "view",
      "type": "function",
      "constant": true
    },
    {
      "inputs": [],
      "name": "symbol",
      "outputs": [
        {
          "internalType": "string",
          "name": "",
          "type": "string"
        }
      ],
      "stateMutability": "view",
      "type": "function",
      "constant": true
    },
    {
      "inputs": [],
      "name": "tokenCounter",
      "outputs": [
        {
          "internalType": "uint256",
          "name": "",
          "type": "uint256"
        }
      ],
      "stateMutability": "view",
      "type": "function",
      "constant": true
    },
    {
      "inputs": [
        {
          "internalType": "uint256",
          "name": "tokenId",
          "type": "uint256"
        }
      ],
      "name": "tokenURI",
      "outputs": [
        {
          "internalType": "string",
          "name": "",
          "type": "string"
        }
      ],
      "stateMutability": "view",
      "type": "function",
      "constant": true
    },
    {
      "inputs": [
        {
          "internalType": "address",
          "name": "from",
          "type": "address"
        },
        {
          "internalType": "address",
          "name": "to",
          "type": "address"
        },
        {
          "internalType": "uint256",
          "name": "tokenId",
          "type": "uint256"
        }
      ],
      "name": "transferFrom",
      "outputs": [],
      "stateMutability": "nonpayable",
      "type": "function"
    },
    {
      "inputs": [
        {
          "internalType": "address",
          "name": "newOwner",
          "type": "address"
        }
      ],
      "name": "transferOwnership",
      "outputs": [],
      "stateMutability": "nonpayable",
      "type": "function"
    },
    {
      "inputs": [
        {
          "internalType": "address",
          "name": "farmer",
          "type": "address"
        },
        {
          "internalType": "string",
          "name": "tokenURI",
          "type": "string"
        }
      ],
      "name": "mintNFT",
      "outputs": [
        {
          "internalType": "uint256",
          "name": "",
          "type": "uint256"
        }
      ],
      "stateMutability": "nonpayable",
      "type": "function"
    },
    {
      "inputs": [
        {
          "internalType": "uint256",
          "name": "tokenId",
          "type": "uint256"
        }
      ],
      "name": "renewNFT",
      "outputs": [],
      "stateMutability": "nonpayable",
      "type": "function"
    },
    {
      "inputs": [
        {
          "internalType": "uint256",
          "name": "tokenId",
          "type": "uint256"
        }
      ],
      "name": "isExpired",
      "outputs": [
        {
          "internalType": "bool",
          "name": "",
          "type": "bool"
        }
      ],
      "stateMutability": "view",
      "type": "function",
      "constant": true
    }
  ],
  "bytecode": "0x608060405234801561001057600080fd5b50604051613015380380613015833981810160405281019061003291906102bb565b336040518060400160405280600d81526020017f426c7565436172626f6e4e4654000000000000000000000000000000000000008152506040518060400160405280600381526020017f42434e000000000000000000000000000000000000000000000000000000000081525081600090816100ae9190610538565b5080600190816100be9190610538565b505050600073ffffffffffffffffffffffffffffffffffffffff168173ffffffffffffffffffffffffffffffffffffffff16036101335760006040517f1e4fbdf700000000000000000000000000000000000000000000000000000000815260040161012a9190610619565b60405180910390fd5b6101428161019260201b60201c565b50600060088190555080600960006101000a81548173ffffffffffffffffffffffffffffffffffffffff021916908373ffffffffffffffffffffffffffffffffffffffff16021790555050610634565b6000600760009054906101000a900473ffffffffffffffffffffffffffffffffffffffff16905081600760006101000a81548173ffffffffffffffffffffffffffffffffffffffff021916908373ffffffffffffffffffffffffffffffffffffffff1602179055508173ffffffffffffffffffffffffffffffffffffffff168173ffffffffffffffffffffffffffffffffffffffff167f8be0079c531659141344cd1fd0a4f28419497f9722a3daafe3b4186f6b6457e060405160405180910390a35050565b600080fd5b600073ffffffffffffffffffffffffffffffffffffffff82169050919050565b60006102888261025d565b9050919050565b6102988161027d565b81146102a357600080fd5b50565b6000815190506102b58161028f565b92915050565b6000602082840312156102d1576102d0610258565b5b60006102df848285016102a6565b91505092915050565b600081519050919050565b7f4e487b7100000000000000000000000000000000000000000000000000000000600052604160045260246000fd5b7f4e487b7100000000000000000000000000000000000000000000000000000000600052602260045260246000fd5b6000600282049050600182168061036957607f821691505b60208210810361037c5761037b610322565b5b50919050565b60008190508160005260206000209050919050565b60006020601f8301049050919050565b600082821b905092915050565b6000600883026103e47fffffffffffffffffffffffffffffffffffffffffffffffffffffffffffffffff826103a7565b6103ee86836103a7565b95508019841693508086168417925050509392505050565b6000819050919050565b6000819050919050565b600061043561043061042b84610406565b610410565b610406565b9050919050565b6000819050919050565b61044f8361041a565b61046361045b8261043c565b8484546103b4565b825550505050565b600090565b61047861046b565b610483818484610446565b505050565b5b818110156104a75761049c600082610470565b600181019050610489565b5050565b601f8211156104ec576104bd81610382565b6104c684610397565b810160208510156104d5578190505b6104e96104e185610397565b830182610488565b50505b505050565b600082821c905092915050565b600061050f600019846008026104f1565b1980831691505092915050565b600061052883836104fe565b9150826002028217905092915050565b610541826102e8565b67ffffffffffffffff81111561055a576105596102f3565b5b6105648254610351565b61056f8282856104ab565b600060209050601f8311600181146105a25760008415610590578287015190505b61059a858261051c565b865550610602565b601f1984166105b086610382565b60005b828110156105d8578489015182556001820191506020850194506020810190506105b3565b868310156105f557848901516105f1601f8916826104fe565b8355505b6001600288020188555050505b505050505050565b6106138161027d565b82525050565b600060208201905061062e600083018461060a565b92915050565b6129d2806106436000396000f3fe608060405234801561001057600080fd5b50600436106101425760003560e01c80638da5cb5b116100b8578063d082e3811161007c578063d082e38114610361578063d9548e531461037f578063e985e9c5146103af578063eacabe14146103df578063f2fde38b1461040f578063fe6585f31461042b57610142565b80638da5cb5b146102bd57806395d89b41146102db578063a22cb465146102f9578063b88d4fde14610315578063c87b56dd1461033157610142565b806323b872dd1161010a57806323b872dd146101ff57806342842e0e1461021b5780634ad82965146102375780636352211e1461025357806370a0823114610283578063715018a6146102b357610142565b806301ffc9a71461014757806306fdde0314610177578063081812fc14610195578063095ea7b3146101c55780630da80980146101e1575b600080fd5b610161600480360381019061015c9190611d8a565b61045b565b60405161016e9190611dd2565b60405180910390f35b61017f6104bc565b60405161018c9190611e7d565b60405180910390f35b6101af60048036038101906101aa9190611ed5565b61054e565b6040516101bc9190611f43565b60405180910390f35b6101df60048036038101906101da9190611f8a565b61056a565b005b6101e9610580565b6040516101f69190611f43565b60405180910390f35b61021960048036038101906102149190611fca565b6105a6565b005b61023560048036038101906102309190611fca565b6106a8565b005b610251600480360381019061024c9190611ed5565b6106c8565b005b61026d60048036038101906102689190611ed5565b6107b3565b60405161027a9190611f43565b60405180910390f35b61029d6004803603810190610298919061201d565b6107c5565b6040516102aa9190612059565b60405180910390f35b6102bb61087f565b005b6102c5610893565b6040516102d29190611f43565b60405180910390f35b6102e36108bd565b6040516102f09190611e7d565b60405180910390f35b610313600480360381019061030e91906120a0565b61094f565b005b61032f600480360381019061032a9190612215565b610965565b005b61034b60048036038101906103469190611ed5565b61098a565b6040516103589190611e7d565b60405180910390f35b610369610a9d565b6040516103769190612059565b60405180910390f35b61039960048036038101906103949190611ed5565b610aa3565b6040516103a69190611dd2565b60405180910390f35b6103c960048036038101906103c49190612298565b610ac2565b6040516103d69190611dd2565b60405180910390f35b6103f960048036038101906103f49190612379565b610b56565b6040516104069190612059565b60405180910390f35b6104296004803603810190610424919061201d565b610c0f565b005b61044560048036038101906104409190611ed5565b610c95565b6040516104529190612059565b60405180910390f35b6000634906490660e01b7bffffffffffffffffffffffffffffffffffffffffffffffffffffffff1916827bffffffffffffffffffffffffffffffffffffffffffffffffffffffff191614806104b557506104b482610cad565b5b9050919050565b6060600080546104cb90612404565b80601f01602080910402602001604051908101604052809291908181526020018280546104f790612404565b80156105445780601f1061051957610100808354040283529160200191610544565b820191906000526020600020905b81548152906001019060200180831161052757829003601f168201915b5050505050905090565b600061055982610d8f565b5061056382610e17565b9050919050565b61057c8282610577610e54565b610e5c565b5050565b600960009054906101000a900473ffffffffffffffffffffffffffffffffffffffff1681565b600073ffffffffffffffffffffffffffffffffffffffff168273ffffffffffffffffffffffffffffffffffffffff16036106185760006040517f64a0ae9200000000000000000000000000000000000000000000000000000000815260040161060f9190611f43565b60405180910390fd5b600061062c8383610627610e54565b610e6e565b90508373ffffffffffffffffffffffffffffffffffffffff168173ffffffffffffffffffffffffffffffffffffffff16146106a2578382826040517f64283d7b00000000000000000000000000000000000000000000000000000000815260040161069993929190612435565b60405180910390fd5b50505050565b6106c383838360405180602001604052806000815250610965565b505050565b3373ffffffffffffffffffffffffffffffffffffffff166106e8826107b3565b73ffffffffffffffffffffffffffffffffffffffff161461073e576040517f08c379a0000000000000000000000000000000000000000000000000000000008152600401610735906124b8565b60405180910390fd5b6301e133804261074e9190612507565b600a600083815260200190815260200160002081905550807fd1b3770964f3f8297e17bec523cc7030fb26d46e8f05e624450d4f00df24ea26600a6000848152602001908152602001600020546040516107a89190612059565b60405180910390a250565b60006107be82610d8f565b9050919050565b60008073ffffffffffffffffffffffffffffffffffffffff168273ffffffffffffffffffffffffffffffffffffffff16036108385760006040517f89c62b6400000000000000000000000000000000000000000000000000000000815260040161082f9190611f43565b60405180910390fd5b600360008373ffffffffffffffffffffffffffffffffffffffff1673ffffffffffffffffffffffffffffffffffffffff168152602001908152602001600020549050919050565b610887611088565b610891600061110f565b565b6000600760009054906101000a900473ffffffffffffffffffffffffffffffffffffffff16905090565b6060600180546108cc90612404565b80601f01602080910402602001604051908101604052809291908181526020018280546108f890612404565b80156109455780601f1061091a57610100808354040283529160200191610945565b820191906000526020600020905b81548152906001019060200180831161092857829003601f168201915b5050505050905090565b61096161095a610e54565b83836111d5565b5050565b6109708484846105a6565b61098461097b610e54565b85858585611344565b50505050565b606061099582610d8f565b5060006006600084815260200190815260200160002080546109b690612404565b80601f01602080910402602001604051908101604052809291908181526020018280546109e290612404565b8015610a2f5780601f10610a0457610100808354040283529160200191610a2f565b820191906000526020600020905b815481529060010190602001808311610a1257829003601f168201915b505050505090506000610a406114f5565b90506000815103610a55578192505050610a98565b600082511115610a8a578082604051602001610a72929190612577565b60405160208183030381529060405292505050610a98565b610a938461150c565b925050505b919050565b60085481565b6000600a60008381526020019081526020016000205442119050919050565b6000600560008473ffffffffffffffffffffffffffffffffffffffff1673ffffffffffffffffffffffffffffffffffffffff16815260200190815260200160002060008373ffffffffffffffffffffffffffffffffffffffff1673ffffffffffffffffffffffffffffffffffffffff16815260200190815260200160002060009054906101000a900460ff16905092915050565b6000610b60611088565b600060086000815480929190610b759061259b565b919050559050610b858482611575565b610b8f8184611593565b6301e1338042610b9f9190612507565b600a600083815260200190815260200160002081905550808473ffffffffffffffffffffffffffffffffffffffff167fd35bb95e09c04b219e35047ce7b7b300e3384264ef84a40456943dbc0fc17c1485604051610bfd9190611e7d565b60405180910390a38091505092915050565b610c17611088565b600073ffffffffffffffffffffffffffffffffffffffff168173ffffffffffffffffffffffffffffffffffffffff1603610c895760006040517f1e4fbdf7000000000000000000000000000000000000000000000000000000008152600401610c809190611f43565b60405180910390fd5b610c928161110f565b50565b600a6020528060005260406000206000915090505481565b60007f80ac58cd000000000000000000000000000000000000000000000000000000007bffffffffffffffffffffffffffffffffffffffffffffffffffffffff1916827bffffffffffffffffffffffffffffffffffffffffffffffffffffffff19161480610d7857507f5b5e139f000000000000000000000000000000000000000000000000000000007bffffffffffffffffffffffffffffffffffffffffffffffffffffffff1916827bffffffffffffffffffffffffffffffffffffffffffffffffffffffff1916145b80610d885750610d87826115ef565b5b9050919050565b600080610d9b83611659565b9050600073ffffffffffffffffffffffffffffffffffffffff168173ffffffffffffffffffffffffffffffffffffffff1603610e0e57826040517f7e273289000000000000000000000000000000000000000000000000000000008152600401610e059190612059565b60405180910390fd5b80915050919050565b60006004600083815260200190815260200160002060009054906101000a900473ffffffffffffffffffffffffffffffffffffffff169050919050565b600033905090565b610e698383836001611696565b505050565b600080610e7a84611659565b9050600073ffffffffffffffffffffffffffffffffffffffff168373ffffffffffffffffffffffffffffffffffffffff1614610ebc57610ebb81848661185b565b5b600073ffffffffffffffffffffffffffffffffffffffff168173ffffffffffffffffffffffffffffffffffffffff1614610f4d57610efe600085600080611696565b6001600360008373ffffffffffffffffffffffffffffffffffffffff1673ffffffffffffffffffffffffffffffffffffffff168152602001908152602001600020600082825403925050819055505b600073ffffffffffffffffffffffffffffffffffffffff168573ffffffffffffffffffffffffffffffffffffffff1614610fd0576001600360008773ffffffffffffffffffffffffffffffffffffffff1673ffffffffffffffffffffffffffffffffffffffff168152602001908152602001600020600082825401925050819055505b846002600086815260200190815260200160002060006101000a81548173ffffffffffffffffffffffffffffffffffffffff021916908373ffffffffffffffffffffffffffffffffffffffff160217905550838573ffffffffffffffffffffffffffffffffffffffff168273ffffffffffffffffffffffffffffffffffffffff167fddf252ad1be2c89b69c2b068fc378daa952ba7f163c4a11628f55a4df523b3ef60405160405180910390a4809150509392505050565b611090610e54565b73ffffffffffffffffffffffffffffffffffffffff166110ae610893565b73ffffffffffffffffffffffffffffffffffffffff161461110d576110d1610e54565b6040517f118cdaa70000000000000000000000000000000000000000000000000000000081526004016111049190611f43565b60405180910390fd5b565b6000600760009054906101000a900473ffffffffffffffffffffffffffffffffffffffff16905081600760006101000a81548173ffffffffffffffffffffffffffffffffffffffff021916908373ffffffffffffffffffffffffffffffffffffffff1602179055508173ffffffffffffffffffffffffffffffffffffffff168173ffffffffffffffffffffffffffffffffffffffff167f8be0079c531659141344cd1fd0a4f28419497f9722a3daafe3b4186f6b6457e060405160405180910390a35050565b600073ffffffffffffffffffffffffffffffffffffffff168273ffffffffffffffffffffffffffffffffffffffff160361124657816040517f5b08ba1800000000000000000000000000000000000000000000000000000000815260040161123d9190611f43565b60405180910390fd5b80600560008573ffffffffffffffffffffffffffffffffffffffff1673ffffffffffffffffffffffffffffffffffffffff16815260200190815260200160002060008473ffffffffffffffffffffffffffffffffffffffff1673ffffffffffffffffffffffffffffffffffffffff16815260200190815260200160002060006101000a81548160ff0219169083151502179055508173ffffffffffffffffffffffffffffffffffffffff168373ffffffffffffffffffffffffffffffffffffffff167f17307eab39ab6107e8899845ad3d59bd9653f200f220920489ca2b5937696c31836040516113379190611dd2565b60405180910390a3505050565b60008373ffffffffffffffffffffffffffffffffffffffff163b11156114ee578273ffffffffffffffffffffffffffffffffffffffff1663150b7a02868685856040518563ffffffff1660e01b81526004016113a39493929190612638565b6020604051808303816000875af19250505080156113df57506040513d601f19601f820116820180604052508101906113dc9190612699565b60015b611463573d806000811461140f576040519150601f19603f3d011682016040523d82523d6000602084013e611414565b606091505b50600081510361145b57836040517f64a0ae920000000000000000000000000000000000000000000000000000000081526004016114529190611f43565b60405180910390fd5b805160208201fd5b63150b7a0260e01b7bffffffffffffffffffffffffffffffffffffffffffffffffffffffff1916817bffffffffffffffffffffffffffffffffffffffffffffffffffffffff1916146114ec57836040517f64a0ae920000000000000000000000000000000000000000000000000000000081526004016114e39190611f43565b60405180910390fd5b505b5050505050565b606060405180602001604052806000815250905090565b606061151782610d8f565b5060006115226114f5565b90506000815111611542576040518060200160405280600081525061156d565b8061154c8461191f565b60405160200161155d929190612577565b6040516020818303038152906040525b915050919050565b61158f8282604051806020016040528060008152506119ed565b5050565b806006600084815260200190815260200160002090816115b39190612872565b507ff8e1a15aba9398e019f0b49df1a4fde98ee17ae345cb5f6b5e2c27f5033e8ce7826040516115e39190612059565b60405180910390a15050565b60007f01ffc9a7000000000000000000000000000000000000000000000000000000007bffffffffffffffffffffffffffffffffffffffffffffffffffffffff1916827bffffffffffffffffffffffffffffffffffffffffffffffffffffffff1916149050919050565b60006002600083815260200190815260200160002060009054906101000a900473ffffffffffffffffffffffffffffffffffffffff169050919050565b80806116cf5750600073ffffffffffffffffffffffffffffffffffffffff168273ffffffffffffffffffffffffffffffffffffffff1614155b156118035760006116df84610d8f565b9050600073ffffffffffffffffffffffffffffffffffffffff168373ffffffffffffffffffffffffffffffffffffffff161415801561174a57508273ffffffffffffffffffffffffffffffffffffffff168173ffffffffffffffffffffffffffffffffffffffff1614155b801561175d575061175b8184610ac2565b155b1561179f57826040517fa9fbf51f0000000000000000000000000000000000000000000000000000000081526004016117969190611f43565b60405180910390fd5b811561180157838573ffffffffffffffffffffffffffffffffffffffff168273ffffffffffffffffffffffffffffffffffffffff167f8c5be1e5ebec7d5bd14f71427d1e84f3dd0314c0f7b2291e5b200ac8c7c3b92560405160405180910390a45b505b836004600085815260200190815260200160002060006101000a81548173ffffffffffffffffffffffffffffffffffffffff021916908373ffffffffffffffffffffffffffffffffffffffff16021790555050505050565b611866838383611a11565b61191a57600073ffffffffffffffffffffffffffffffffffffffff168373ffffffffffffffffffffffffffffffffffffffff16036118db57806040517f7e2732890000000000000000000000000000000000000000000000000000000081526004016118d29190612059565b60405180910390fd5b81816040517f177e802f000000000000000000000000000000000000000000000000000000008152600401611911929190612944565b60405180910390fd5b505050565b60606000600161192e84611ad2565b01905060008167ffffffffffffffff81111561194d5761194c6120ea565b5b6040519080825280601f01601f19166020018201604052801561197f5781602001600182028036833780820191505090505b509050600082602083010190505b6001156119e2578080600190039150507f3031323334353637383961626364656600000000000000000000000000000000600a86061a8153600a85816119d6576119d561296d565b5b0494506000850361198d575b819350505050919050565b6119f78383611c25565b611a0c611a02610e54565b6000858585611344565b505050565b60008073ffffffffffffffffffffffffffffffffffffffff168373ffffffffffffffffffffffffffffffffffffffff1614158015611ac957508273ffffffffffffffffffffffffffffffffffffffff168473ffffffffffffffffffffffffffffffffffffffff161480611a8a5750611a898484610ac2565b5b80611ac857508273ffffffffffffffffffffffffffffffffffffffff16611ab083610e17565b73ffffffffffffffffffffffffffffffffffffffff16145b5b90509392505050565b600080600090507a184f03e93ff9f4daa797ed6e38ed64bf6a1f0100000000000000008310611b30577a184f03e93ff9f4daa797ed6e38ed64bf6a1f0100000000000000008381611b2657611b2561296d565b5b0492506040810190505b6d04ee2d6d415b85acef81000000008310611b6d576d04ee2d6d415b85acef81000000008381611b6357611b6261296d565b5b0492506020810190505b662386f26fc100008310611b9c57662386f26fc100008381611b9257611b9161296d565b5b0492506010810190505b6305f5e1008310611bc5576305f5e1008381611bbb57611bba61296d565b5b0492506008810190505b6127108310611bea576127108381611be057611bdf61296d565b5b0492506004810190505b60648310611c0d5760648381611c0357611c0261296d565b5b0492506002810190505b600a8310611c1c576001810190505b80915050919050565b600073ffffffffffffffffffffffffffffffffffffffff168273ffffffffffffffffffffffffffffffffffffffff1603611c975760006040517f64a0ae92000000000000000000000000000000000000000000000000000000008152600401611c8e9190611f43565b60405180910390fd5b6000611ca583836000610e6e565b9050600073ffffffffffffffffffffffffffffffffffffffff168173ffffffffffffffffffffffffffffffffffffffff1614611d195760006040517f73c6ac6e000000000000000000000000000000000000000000000000000000008152600401611d109190611f43565b60405180910390fd5b505050565b6000604051905090565b600080fd5b600080fd5b60007fffffffff0000000000000000000000000000000000000000000000000000000082169050919050565b611d6781611d32565b8114611d7257600080fd5b50565b600081359050611d8481611d5e565b92915050565b600060208284031215611da057611d9f611d28565b5b6000611dae84828501611d75565b91505092915050565b60008115159050919050565b611dcc81611db7565b82525050565b6000602082019050611de76000830184611dc3565b92915050565b600081519050919050565b600082825260208201905092915050565b60005b83811015611e27578082015181840152602081019050611e0c565b60008484015250505050565b6000601f19601f8301169050919050565b6000611e4f82611ded565b611e598185611df8565b9350611e69818560208601611e09565b611e7281611e33565b840191505092915050565b60006020820190508181036000830152611e978184611e44565b905092915050565b6000819050919050565b611eb281611e9f565b8114611ebd57600080fd5b50565b600081359050611ecf81611ea9565b92915050565b600060208284031215611eeb57611eea611d28565b5b6000611ef984828501611ec0565b91505092915050565b600073ffffffffffffffffffffffffffffffffffffffff82169050919050565b6000611f2d82611f02565b9050919050565b611f3d81611f22565b82525050565b6000602082019050611f586000830184611f34565b92915050565b611f6781611f22565b8114611f7257600080fd5b50565b600081359050611f8481611f5e565b92915050565b60008060408385031215611fa157611fa0611d28565b5b6000611faf85828601611f75565b9250506020611fc085828601611ec0565b9150509250929050565b600080600060608486031215611fe357611fe2611d28565b5b6000611ff186828701611f75565b935050602061200286828701611f75565b925050604061201386828701611ec0565b9150509250925092565b60006020828403121561203357612032611d28565b5b600061204184828501611f75565b91505092915050565b61205381611e9f565b82525050565b600060208201905061206e600083018461204a565b92915050565b61207d81611db7565b811461208857600080fd5b50565b60008135905061209a81612074565b92915050565b600080604083850312156120b7576120b6611d28565b5b60006120c585828601611f75565b92505060206120d68582860161208b565b9150509250929050565b600080fd5b600080fd5b7f4e487b7100000000000000000000000000000000000000000000000000000000600052604160045260246000fd5b61212282611e33565b810181811067ffffffffffffffff82111715612141576121406120ea565b5b80604052505050565b6000612154611d1e565b90506121608282612119565b919050565b600067ffffffffffffffff8211156121805761217f6120ea565b5b61218982611e33565b9050602081019050919050565b82818337600083830152505050565b60006121b86121b384612165565b61214a565b9050828152602081018484840111156121d4576121d36120e5565b5b6121df848285612196565b509392505050565b600082601f8301126121fc576121fb6120e0565b5b813561220c8482602086016121a5565b91505092915050565b6000806000806080858703121561222f5761222e611d28565b5b600061223d87828801611f75565b945050602061224e87828801611f75565b935050604061225f87828801611ec0565b925050606085013567ffffffffffffffff8111156122805761227f611d2d565b5b61228c878288016121e7565b91505092959194509250565b600080604083850312156122af576122ae611d28565b5b60006122bd85828601611f75565b92505060206122ce85828601611f75565b9150509250929050565b600067ffffffffffffffff8211156122f3576122f26120ea565b5b6122fc82611e33565b9050602081019050919050565b600061231c612317846122d8565b61214a565b905082815260208101848484011115612338576123376120e5565b5b612343848285612196565b509392505050565b600082601f8301126123605761235f6120e0565b5b8135612370848260208601612309565b91505092915050565b600080604083850312156123905761238f611d28565b5b600061239e85828601611f75565b925050602083013567ffffffffffffffff8111156123bf576123be611d2d565b5b6123cb8582860161234b565b9150509250929050565b7f4e487b7100000000000000000000000000000000000000000000000000000000600052602260045260246000fd5b6000600282049050600182168061241c57607f821691505b60208210810361242f5761242e6123d5565b5b50919050565b600060608201905061244a6000830186611f34565b612457602083018561204a565b6124646040830184611f34565b949350505050565b7f4e6f74206f776e65720000000000000000000000000000000000000000000000600082015250565b60006124a2600983611df8565b91506124ad8261246c565b602082019050919050565b600060208201905081810360008301526124d181612495565b9050919050565b7f4e487b7100000000000000000000000000000000000000000000000000000000600052601160045260246000fd5b600061251282611e9f565b915061251d83611e9f565b9250828201905080821115612535576125346124d8565b5b92915050565b600081905092915050565b600061255182611ded565b61255b818561253b565b935061256b818560208601611e09565b80840191505092915050565b60006125838285612546565b915061258f8284612546565b91508190509392505050565b60006125a682611e9f565b91507fffffffffffffffffffffffffffffffffffffffffffffffffffffffffffffffff82036125d8576125d76124d8565b5b600182019050919050565b600081519050919050565b600082825260208201905092915050565b600061260a826125e3565b61261481856125ee565b9350612624818560208601611e09565b61262d81611e33565b840191505092915050565b600060808201905061264d6000830187611f34565b61265a6020830186611f34565b612667604083018561204a565b818103606083015261267981846125ff565b905095945050505050565b60008151905061269381611d5e565b92915050565b6000602082840312156126af576126ae611d28565b5b60006126bd84828501612684565b91505092915050565b60008190508160005260206000209050919050565b60006020601f8301049050919050565b600082821b905092915050565b6000600883026127287fffffffffffffffffffffffffffffffffffffffffffffffffffffffffffffffff826126eb565b61273286836126eb565b95508019841693508086168417925050509392505050565b6000819050919050565b600061276f61276a61276584611e9f565b61274a565b611e9f565b9050919050565b6000819050919050565b61278983612754565b61279d61279582612776565b8484546126f8565b825550505050565b600090565b6127b26127a5565b6127bd818484612780565b505050565b5b818110156127e1576127d66000826127aa565b6001810190506127c3565b5050565b601f821115612826576127f7816126c6565b612800846126db565b8101602085101561280f578190505b61282361281b856126db565b8301826127c2565b50505b505050565b600082821c905092915050565b60006128496000198460080261282b565b1980831691505092915050565b60006128628383612838565b9150826002028217905092915050565b61287b82611ded565b67ffffffffffffffff811115612894576128936120ea565b5b61289e8254612404565b6128a98282856127e5565b600060209050601f8311600181146128dc57600084156128ca578287015190505b6128d48582612856565b86555061293c565b601f1984166128ea866126c6565b60005b82811015612912578489015182556001820191506020850194506020810190506128ed565b8683101561292f578489015161292b601f891682612838565b8355505b6001600288020188555050505b505050505050565b60006040820190506129596000830185611f34565b612966602083018461204a565b9392505050565b7f4e487b7100000000000000000000000000000000000000000000000000000000600052601260045260246000fdfea264697066735822122044163014ffbfd1a92b46d88af9aca24a7e5651d6cac726ae38ad390d16daa0d364736f6c634300081e0033",
  "immutableReferences": {},
  "source": "// SPDX-License-Identifier: MIT\r\npragma solidity ^0.8.20;\r\n\r\nimport \"@openzeppelin/contracts/token/ERC721/extensions/ERC721URIStorage.sol\";\r\nimport \"@openzeppelin/contracts/access/Ownable.sol\";\r\n\r\ncontract CarbonCreditNFT is ERC721URIStorage, Ownable {\r\n    uint256 public tokenCounter;\r\n    address public farmerRegistry;\r\n\r\n    mapping(uint256 => uint256) public renewalTimestamp; // NFT renewal tracking (1 year validity)\r\n\r\n    event NFTMinted(address indexed farmer, uint256 indexed tokenId, string tokenURI);\r\n    event NFTRenewed(uint256 indexed tokenId, uint256 newExpiry);\r\n\r\n    constructor(address _farmerRegistry)\r\n        ERC721(\"BlueCarbonNFT\", \"BCN\")  //  Pass arguments to base ERC721\r\n        Ownable(msg.sender)             //  Set deployer as owner (new OZ versions require this)\r\n    {\r\n        tokenCounter = 0;\r\n        farmerRegistry = _farmerRegistry;\r\n    }\r\n\r\n    function mintNFT(address farmer, string memory tokenURI) external onlyOwner returns (uint256) {\r\n        uint256 tokenId = tokenCounter++;\r\n        _safeMint(farmer, tokenId);\r\n        _setTokenURI(tokenId, tokenURI);\r\n\r\n        renewalTimestamp[tokenId] = block.timestamp + 365 days; // 1-year validity\r\n        emit NFTMinted(farmer, tokenId, tokenURI);\r\n        return tokenId;\r\n    }\r\n\r\n    function renewNFT(uint256 tokenId) external {\r\n        require(ownerOf(tokenId) == msg.sender, \"Not owner\");\r\n        renewalTimestamp[tokenId] = block.timestamp + 365 days;\r\n        emit NFTRenewed(tokenId, renewalTimestamp[tokenId]);\r\n    }\r\n\r\n    function isExpired(uint256 tokenId) public view returns (bool) {\r\n        return block.timestamp > renewalTimestamp[tokenId];\r\n    }\r\n}\r\n",
  "sourcePath": "C:\\Users\\hp\\OneDrive\\Desktop\\Projects\\BlueCarbon\\blockchain\\contracts\\CarbonCreditNFT.sol",
  "compiler": {
    "name": "solc",
    "version": "0.8.30+commit.73712a01.Emscripten.clang"
  },
  "schemaVersion": "3.4.16",
  "updatedAt": "2025-10-17T16:22:59.604Z",
  "networkType": "ethereum",
  "devdoc": {
    "errors": {
      "ERC721IncorrectOwner(address,uint256,address)": [
        {
          "details": "Indicates an error related to the ownership over a particular token. Used in transfers.",
          "params": {
            "owner": "Address of the current owner of a token.",
            "sender": "Address whose tokens are being transferred.",
            "tokenId": "Identifier number of a token."
          }
        }
      ],
      "ERC721InsufficientApproval(address,uint256)": [
        {
          "details": "Indicates a failure with the `operator`s approval. Used in transfers.",
          "params": {
            "operator": "Address that may be allowed to operate on tokens without being their owner.",
            "tokenId": "Identifier number of a token."
          }
        }
      ],
      "ERC721InvalidApprover(address)": [
        {
          "details": "Indicates a failure with the `approver` of a token to be approved. Used in approvals.",
          "params": {
            "approver": "Address initiating an approval operation."
          }
        }
      ],
      "ERC721InvalidOperator(address)": [
        {
          "details": "Indicates a failure with the `operator` to be approved. Used in approvals.",
          "params": {
            "operator": "Address that may be allowed to operate on tokens without being their owner."
          }
        }
      ],
      "ERC721InvalidOwner(address)": [
        {
          "details": "Indicates that an address can't be an owner. For example, `address(0)` is a forbidden owner in ERC-20. Used in balance queries.",
          "params": {
            "owner": "Address of the current owner of a token."
          }
        }
      ],
      "ERC721InvalidReceiver(address)": [
        {
          "details": "Indicates a failure with the token `receiver`. Used in transfers.",
          "params": {
            "receiver": "Address to which tokens are being transferred."
          }
        }
      ],
      "ERC721InvalidSender(address)": [
        {
          "details": "Indicates a failure with the token `sender`. Used in transfers.",
          "params": {
            "sender": "Address whose tokens are being transferred."
          }
        }
      ],
      "ERC721NonexistentToken(uint256)": [
        {
          "details": "Indicates a `tokenId` whose `owner` is the zero address.",
          "params": {
            "tokenId": "Identifier number of a token."
          }
        }
      ],
      "OwnableInvalidOwner(address)": [
        {
          "details": "The owner is not a valid owner account. (eg. `address(0)`)"
        }
      ],
      "OwnableUnauthorizedAccount(address)": [
        {
          "details": "The caller account is not authorized to perform an operation."
        }
      ]
    },
    "events": {
      "Approval(address,address,uint256)": {
        "details": "Emitted when `owner` enables `approved` to manage the `tokenId` token."
      },
      "ApprovalForAll(address,address,bool)": {
        "details": "Emitted when `owner` enables or disables (`approved`) `operator` to manage all of its assets."
      },
      "BatchMetadataUpdate(uint256,uint256)": {
        "details": "This event emits when the metadata of a range of tokens is changed. So that the third-party platforms such as NFT market could timely update the images and related attributes of the NFTs."
      },
      "MetadataUpdate(uint256)": {
        "details": "This event emits when the metadata of a token is changed. So that the third-party platforms such as NFT market could timely update the images and related attributes of the NFT."
      },
      "Transfer(address,address,uint256)": {
        "details": "Emitted when `tokenId` token is transferred from `from` to `to`."
      }
    },
    "kind": "dev",
    "methods": {
      "approve(address,uint256)": {
        "details": "Gives permission to `to` to transfer `tokenId` token to another account. The approval is cleared when the token is transferred. Only a single account can be approved at a time, so approving the zero address clears previous approvals. Requirements: - The caller must own the token or be an approved operator. - `tokenId` must exist. Emits an {Approval} event."
      },
      "balanceOf(address)": {
        "details": "Returns the number of tokens in ``owner``'s account."
      },
      "getApproved(uint256)": {
        "details": "Returns the account approved for `tokenId` token. Requirements: - `tokenId` must exist."
      },
      "isApprovedForAll(address,address)": {
        "details": "Returns if the `operator` is allowed to manage all of the assets of `owner`. See {setApprovalForAll}"
      },
      "name()": {
        "details": "Returns the token collection name."
      },
      "owner()": {
        "details": "Returns the address of the current owner."
      },
      "ownerOf(uint256)": {
        "details": "Returns the owner of the `tokenId` token. Requirements: - `tokenId` must exist."
      },
      "renounceOwnership()": {
        "details": "Leaves the contract without owner. It will not be possible to call `onlyOwner` functions. Can only be called by the current owner. NOTE: Renouncing ownership will leave the contract without an owner, thereby disabling any functionality that is only available to the owner."
      },
      "safeTransferFrom(address,address,uint256)": {
        "details": "Safely transfers `tokenId` token from `from` to `to`, checking first that contract recipients are aware of the ERC-721 protocol to prevent tokens from being forever locked. Requirements: - `from` cannot be the zero address. - `to` cannot be the zero address. - `tokenId` token must exist and be owned by `from`. - If the caller is not `from`, it must have been allowed to move this token by either {approve} or   {setApprovalForAll}. - If `to` refers to a smart contract, it must implement {IERC721Receiver-onERC721Received}, which is called upon   a safe transfer. Emits a {Transfer} event."
      },
      "safeTransferFrom(address,address,uint256,bytes)": {
        "details": "Safely transfers `tokenId` token from `from` to `to`. Requirements: - `from` cannot be the zero address. - `to` cannot be the zero address. - `tokenId` token must exist and be owned by `from`. - If the caller is not `from`, it must be approved to move this token by either {approve} or {setApprovalForAll}. - If `to` refers to a smart contract, it must implement {IERC721Receiver-onERC721Received}, which is called upon   a safe transfer. Emits a {Transfer} event."
      },
      "setApprovalForAll(address,bool)": {
        "details": "Approve or remove `operator` as an operator for the caller. Operators can call {transferFrom} or {safeTransferFrom} for any token owned by the caller. Requirements: - The `operator` cannot be the address zero. Emits an {ApprovalForAll} event."
      },
      "supportsInterface(bytes4)": {
        "details": "Returns true if this contract implements the interface defined by `interfaceId`. See the corresponding https://eips.ethereum.org/EIPS/eip-165#how-interfaces-are-identified[ERC section] to learn more about how these ids are created. This function call must use less than 30 000 gas."
      },
      "symbol()": {
        "details": "Returns the token collection symbol."
      },
      "tokenURI(uint256)": {
        "details": "Returns the Uniform Resource Identifier (URI) for `tokenId` token."
      },
      "transferFrom(address,address,uint256)": {
        "details": "Transfers `tokenId` token from `from` to `to`. WARNING: Note that the caller is responsible to confirm that the recipient is capable of receiving ERC-721 or else they may be permanently lost. Usage of {safeTransferFrom} prevents loss, though the caller must understand this adds an external call which potentially creates a reentrancy vulnerability. Requirements: - `from` cannot be the zero address. - `to` cannot be the zero address. - `tokenId` token must be owned by `from`. - If the caller is not `from`, it must be approved to move this token by either {approve} or {setApprovalForAll}. Emits a {Transfer} event."
      },
      "transferOwnership(address)": {
        "details": "Transfers ownership of the contract to a new account (`newOwner`). Can only be called by the current owner."
      }
    },
    "version": 1
  },
  "userdoc": {
    "kind": "user",
    "methods": {},
    "version": 1
  }
}