{
  "contractName": "FarmerRegistry",
  "abi": [
    {
      "inputs": [],
      "stateMutability": "nonpayable",
      "type": "constructor"
    },
    {
      "anonymous": false,
      "inputs": [
        {
          "indexed": true,
          "internalType": "address",
          "name": "farmer",
          "type": "address"
        },
        {
          "indexed": false,
          "internalType": "string",
          "name": "name",
          "type": "string"
        },
        {
          "indexed": false,
          "internalType": "string",
          "name": "location",
          "type": "string"
        }
      ],
      "name": "FarmerRegistered",
      "type": "event"
    },
    {
      "anonymous": false,
      "inputs": [
        {
          "indexed": true,
          "internalType": "address",
          "name": "farmer",
          "type": "address"
        },
        {
          "indexed": true,
          "internalType": "uint256",
          "name": "treeId",
          "type": "uint256"
        },
        {
          "indexed": false,
          "internalType": "string",
          "name": "ipfsHash",
          "type": "string"
        }
      ],
      "name": "TreeRegistered",
      "type": "event"
    },
    {
      "anonymous": false,
      "inputs": [
        {
          "indexed": true,
          "internalType": "address",
          "name": "farmer",
          "type": "address"
        },
        {
          "indexed": true,
          "internalType": "uint256",
          "name": "treeId",
          "type": "uint256"
        }
      ],
      "name": "TreeVerified",
      "type": "event"
    },
    {
      "inputs": [],
      "name": "admin",
      "outputs": [
        {
          "internalType": "address",
          "name": "",
          "type": "address"
        }
      ],
      "stateMutability": "view",
      "type": "function",
      "constant": true
    },
    {
      "inputs": [
        {
          "internalType": "address",
          "name": "",
          "type": "address"
        }
      ],
      "name": "farmers",
      "outputs": [
        {
          "internalType": "string",
          "name": "name",
          "type": "string"
        },
        {
          "internalType": "string",
          "name": "location",
          "type": "string"
        },
        {
          "internalType": "uint256",
          "name": "totalTrees",
          "type": "uint256"
        }
      ],
      "stateMutability": "view",
      "type": "function",
      "constant": true
    },
    {
      "inputs": [
        {
          "internalType": "string",
          "name": "_name",
          "type": "string"
        },
        {
          "internalType": "string",
          "name": "_location",
          "type": "string"
        }
      ],
      "name": "registerFarmer",
      "outputs": [],
      "stateMutability": "nonpayable",
      "type": "function"
    },
    {
      "inputs": [
        {
          "internalType": "string",
          "name": "_ipfsHash",
          "type": "string"
        }
      ],
      "name": "registerTree",
      "outputs": [],
      "stateMutability": "nonpayable",
      "type": "function"
    },
    {
      "inputs": [
        {
          "internalType": "address",
          "name": "_farmer",
          "type": "address"
        },
        {
          "internalType": "uint256",
          "name": "_treeId",
          "type": "uint256"
        }
      ],
      "name": "verifyTree",
      "outputs": [],
      "stateMutability": "nonpayable",
      "type": "function"
    }
  ],
  "bytecode": "0x6080604052348015600f57600080fd5b5033600160006101000a81548173ffffffffffffffffffffffffffffffffffffffff021916908373ffffffffffffffffffffffffffffffffffffffff160217905550610f77806100606000396000f3fe608060405234801561001057600080fd5b50600436106100575760003560e01c806304770e211461005c57806322c440f414610078578063314596b214610094578063401b2168146100b0578063f851a440146100e2575b600080fd5b610076600480360381019061007191906106de565b610100565b005b610092600480360381019061008d9190610864565b61024c565b005b6100ae60048036038101906100a991906108ad565b6103c8565b005b6100ca60048036038101906100c59190610925565b6104d6565b6040516100d9939291906109e0565b60405180910390f35b6100ea610610565b6040516100f79190610a34565b60405180910390f35b600160009054906101000a900473ffffffffffffffffffffffffffffffffffffffff1673ffffffffffffffffffffffffffffffffffffffff163373ffffffffffffffffffffffffffffffffffffffff1614610190576040517f08c379a000000000000000000000000000000000000000000000000000000000815260040161018790610a9b565b60405180910390fd5b60008060008473ffffffffffffffffffffffffffffffffffffffff1673ffffffffffffffffffffffffffffffffffffffff1681526020019081526020016000209050600181600301600084815260200190815260200160002060020160006101000a81548160ff021916908315150217905550818373ffffffffffffffffffffffffffffffffffffffff167fc8d1c35bf887df6591a832b9cf5d4b2c5bbbfb36bed9d379daad85482a5fc5ae60405160405180910390a3505050565b60008060003373ffffffffffffffffffffffffffffffffffffffff1673ffffffffffffffffffffffffffffffffffffffff1681526020019081526020016000209050600081600001805461029f90610aea565b9050036102e1576040517f08c379a00000000000000000000000000000000000000000000000000000000081526004016102d890610b67565b60405180910390fd5b60008160020160008154809291906102f890610bb6565b91905055905060405180606001604052808481526020014281526020016000151581525082600301600083815260200190815260200160002060008201518160000190816103469190610daa565b506020820151816001015560408201518160020160006101000a81548160ff021916908315150217905550905050803373ffffffffffffffffffffffffffffffffffffffff167ff1f016860f68a3ccf8c8535ee8be95605f42cc2965ed20af0f07f4012c129038856040516103bb9190610e7c565b60405180910390a3505050565b60008060003373ffffffffffffffffffffffffffffffffffffffff1673ffffffffffffffffffffffffffffffffffffffff1681526020019081526020016000209050600081600001805461041b90610aea565b90501461045d576040517f08c379a000000000000000000000000000000000000000000000000000000000815260040161045490610eea565b60405180910390fd5b8281600001908161046e9190610daa565b50818160010190816104809190610daa565b503373ffffffffffffffffffffffffffffffffffffffff167f851322da2e414e9965ce5ecef6890861b23f27fe84bd9646b7de8aea70efcb5684846040516104c9929190610f0a565b60405180910390a2505050565b60006020528060005260406000206000915090508060000180546104f990610aea565b80601f016020809104026020016040519081016040528092919081815260200182805461052590610aea565b80156105725780601f1061054757610100808354040283529160200191610572565b820191906000526020600020905b81548152906001019060200180831161055557829003601f168201915b50505050509080600101805461058790610aea565b80601f01602080910402602001604051908101604052809291908181526020018280546105b390610aea565b80156106005780601f106105d557610100808354040283529160200191610600565b820191906000526020600020905b8154815290600101906020018083116105e357829003601f168201915b5050505050908060020154905083565b600160009054906101000a900473ffffffffffffffffffffffffffffffffffffffff1681565b6000604051905090565b600080fd5b600080fd5b600073ffffffffffffffffffffffffffffffffffffffff82169050919050565b60006106758261064a565b9050919050565b6106858161066a565b811461069057600080fd5b50565b6000813590506106a28161067c565b92915050565b6000819050919050565b6106bb816106a8565b81146106c657600080fd5b50565b6000813590506106d8816106b2565b92915050565b600080604083850312156106f5576106f4610640565b5b600061070385828601610693565b9250506020610714858286016106c9565b9150509250929050565b600080fd5b600080fd5b6000601f19601f8301169050919050565b7f4e487b7100000000000000000000000000000000000000000000000000000000600052604160045260246000fd5b61077182610728565b810181811067ffffffffffffffff821117156107905761078f610739565b5b80604052505050565b60006107a3610636565b90506107af8282610768565b919050565b600067ffffffffffffffff8211156107cf576107ce610739565b5b6107d882610728565b9050602081019050919050565b82818337600083830152505050565b6000610807610802846107b4565b610799565b90508281526020810184848401111561082357610822610723565b5b61082e8482856107e5565b509392505050565b600082601f83011261084b5761084a61071e565b5b813561085b8482602086016107f4565b91505092915050565b60006020828403121561087a57610879610640565b5b600082013567ffffffffffffffff81111561089857610897610645565b5b6108a484828501610836565b91505092915050565b600080604083850312156108c4576108c3610640565b5b600083013567ffffffffffffffff8111156108e2576108e1610645565b5b6108ee85828601610836565b925050602083013567ffffffffffffffff81111561090f5761090e610645565b5b61091b85828601610836565b9150509250929050565b60006020828403121561093b5761093a610640565b5b600061094984828501610693565b91505092915050565b600081519050919050565b600082825260208201905092915050565b60005b8381101561098c578082015181840152602081019050610971565b60008484015250505050565b60006109a382610952565b6109ad818561095d565b93506109bd81856020860161096e565b6109c681610728565b840191505092915050565b6109da816106a8565b82525050565b600060608201905081810360008301526109fa8186610998565b90508181036020830152610a0e8185610998565b9050610a1d60408301846109d1565b949350505050565b610a2e8161066a565b82525050565b6000602082019050610a496000830184610a25565b92915050565b7f4e6f7420617574686f72697a6564000000000000000000000000000000000000600082015250565b6000610a85600e8361095d565b9150610a9082610a4f565b602082019050919050565b60006020820190508181036000830152610ab481610a78565b9050919050565b7f4e487b7100000000000000000000000000000000000000000000000000000000600052602260045260246000fd5b60006002820490506001821680610b0257607f821691505b602082108103610b1557610b14610abb565b5b50919050565b7f4661726d6572206e6f7420726567697374657265640000000000000000000000600082015250565b6000610b5160158361095d565b9150610b5c82610b1b565b602082019050919050565b60006020820190508181036000830152610b8081610b44565b9050919050565b7f4e487b7100000000000000000000000000000000000000000000000000000000600052601160045260246000fd5b6000610bc1826106a8565b91507fffffffffffffffffffffffffffffffffffffffffffffffffffffffffffffffff8203610bf357610bf2610b87565b5b600182019050919050565b60008190508160005260206000209050919050565b60006020601f8301049050919050565b600082821b905092915050565b600060088302610c607fffffffffffffffffffffffffffffffffffffffffffffffffffffffffffffffff82610c23565b610c6a8683610c23565b95508019841693508086168417925050509392505050565b6000819050919050565b6000610ca7610ca2610c9d846106a8565b610c82565b6106a8565b9050919050565b6000819050919050565b610cc183610c8c565b610cd5610ccd82610cae565b848454610c30565b825550505050565b600090565b610cea610cdd565b610cf5818484610cb8565b505050565b5b81811015610d1957610d0e600082610ce2565b600181019050610cfb565b5050565b601f821115610d5e57610d2f81610bfe565b610d3884610c13565b81016020851015610d47578190505b610d5b610d5385610c13565b830182610cfa565b50505b505050565b600082821c905092915050565b6000610d8160001984600802610d63565b1980831691505092915050565b6000610d9a8383610d70565b9150826002028217905092915050565b610db382610952565b67ffffffffffffffff811115610dcc57610dcb610739565b5b610dd68254610aea565b610de1828285610d1d565b600060209050601f831160018114610e145760008415610e02578287015190505b610e0c8582610d8e565b865550610e74565b601f198416610e2286610bfe565b60005b82811015610e4a57848901518255600182019150602085019450602081019050610e25565b86831015610e675784890151610e63601f891682610d70565b8355505b6001600288020188555050505b505050505050565b60006020820190508181036000830152610e968184610998565b905092915050565b7f416c726561647920726567697374657265640000000000000000000000000000600082015250565b6000610ed460128361095d565b9150610edf82610e9e565b602082019050919050565b60006020820190508181036000830152610f0381610ec7565b9050919050565b60006040820190508181036000830152610f248185610998565b90508181036020830152610f388184610998565b9050939250505056fea2646970667358221220af093d4c02ebdd12f3a513cb87ccaf8d26a083f9be8823a8301845cccd35645764736f6c634300081e0033",
  "immutableReferences": {},
  "source": "// SPDX-License-Identifier: MIT\r\npragma solidity ^0.8.20;\r\n\r\ncontract FarmerRegistry {\r\n    struct TreeData {\r\n        string ipfsHash; // IPFS metadata link\r\n        uint256 timestamp;\r\n        bool verified; // To be set true after AI/3D verification\r\n    }\r\n\r\n    struct Farmer {\r\n        string name;\r\n        string location;\r\n        uint256 totalTrees;\r\n        mapping(uint256 => TreeData) trees;\r\n    }\r\n\r\n    mapping(address => Farmer) public farmers;\r\n    address public admin;\r\n\r\n    event FarmerRegistered(address indexed farmer, string name, string location);\r\n    event TreeRegistered(address indexed farmer, uint256 indexed treeId, string ipfsHash);\r\n    event TreeVerified(address indexed farmer, uint256 indexed treeId);\r\n\r\n    modifier onlyAdmin() {\r\n        require(msg.sender == admin, \"Not authorized\");\r\n        _;\r\n    }\r\n\r\n    constructor() {\r\n        admin = msg.sender;\r\n    }\r\n\r\n    function registerFarmer(string memory _name, string memory _location) external {\r\n        Farmer storage f = farmers[msg.sender];\r\n        require(bytes(f.name).length == 0, \"Already registered\");\r\n        f.name = _name;\r\n        f.location = _location;\r\n        emit FarmerRegistered(msg.sender, _name, _location);\r\n    }\r\n\r\n    function registerTree(string memory _ipfsHash) external {\r\n        Farmer storage f = farmers[msg.sender];\r\n        require(bytes(f.name).length != 0, \"Farmer not registered\");\r\n        uint256 treeId = f.totalTrees++;\r\n        f.trees[treeId] = TreeData(_ipfsHash, block.timestamp, false);\r\n        emit TreeRegistered(msg.sender, treeId, _ipfsHash);\r\n    }\r\n\r\n    function verifyTree(address _farmer, uint256 _treeId) external onlyAdmin {\r\n        Farmer storage f = farmers[_farmer];\r\n        f.trees[_treeId].verified = true;\r\n        emit TreeVerified(_farmer, _treeId);\r\n    }\r\n}\r\n",
  "sourcePath": "C:\\Users\\hp\\OneDrive\\Desktop\\Projects\\BlueCarbon\\blockchain\\contracts\\FarmerRegistry.sol",
  "compiler": {
    "name": "solc",
    "version": "0.8.30+commit.73712a01.Emscripten.clang"
  },
  "schemaVersion": "3.4.16",
  "updatedAt": "2025-10-17T16:22:59.596Z",
  "networkType": "ethereum",
  "devdoc": {
    "kind": "dev",
    "methods": {},
    "version": 1
  },
  "userdoc": {
    "kind": "user",
    "methods": {},
    "version": 1
  }
}